{
  "_format": "hh-sol-artifact-1",
  "contractName": "Stance",
  "sourceName": "contracts/Stance.sol",
  "abi": [
    {
      "inputs": [],
      "stateMutability": "nonpayable",
      "type": "constructor"
    },
    {
      "anonymous": false,
      "inputs": [
        {
          "indexed": false,
          "internalType": "uint256",
          "name": "id",
          "type": "uint256"
        },
        {
          "indexed": false,
          "internalType": "string",
          "name": "question",
          "type": "string"
        },
        {
          "indexed": false,
          "internalType": "address",
          "name": "author",
          "type": "address"
        }
      ],
      "name": "QuestionAsked",
      "type": "event"
    },
    {
      "inputs": [
        {
          "internalType": "uint256",
          "name": "_id",
          "type": "uint256"
        },
        {
          "internalType": "bool",
          "name": "_isAnswerPositive",
          "type": "bool"
        }
      ],
      "name": "answerQuestion",
      "outputs": [],
      "stateMutability": "nonpayable",
      "type": "function"
    },
    {
      "inputs": [
        {
          "internalType": "string",
          "name": "_question",
          "type": "string"
        }
      ],
      "name": "askQuestion",
      "outputs": [],
      "stateMutability": "nonpayable",
      "type": "function"
    },
    {
      "inputs": [],
      "name": "getAllQuestions",
      "outputs": [
        {
          "components": [
            {
              "internalType": "address",
              "name": "author",
              "type": "address"
            },
            {
              "internalType": "uint256",
              "name": "timestamp",
              "type": "uint256"
            },
            {
              "internalType": "string",
              "name": "question",
              "type": "string"
            },
            {
              "internalType": "uint16",
              "name": "positiveResponsesCount",
              "type": "uint16"
            },
            {
              "internalType": "uint16",
              "name": "negativeResponsesCount",
              "type": "uint16"
            }
          ],
          "internalType": "struct Question[]",
          "name": "",
          "type": "tuple[]"
        }
      ],
      "stateMutability": "view",
      "type": "function"
    },
    {
      "inputs": [
        {
          "internalType": "uint256",
          "name": "id",
          "type": "uint256"
        }
      ],
      "name": "getQuestionById",
      "outputs": [
        {
          "components": [
            {
              "internalType": "address",
              "name": "author",
              "type": "address"
            },
            {
              "internalType": "uint256",
              "name": "timestamp",
              "type": "uint256"
            },
            {
              "internalType": "string",
              "name": "question",
              "type": "string"
            },
            {
              "internalType": "uint16",
              "name": "positiveResponsesCount",
              "type": "uint16"
            },
            {
              "internalType": "uint16",
              "name": "negativeResponsesCount",
              "type": "uint16"
            }
          ],
          "internalType": "struct Question",
          "name": "",
          "type": "tuple"
        }
      ],
      "stateMutability": "view",
      "type": "function"
    }
  ],
  "bytecode": "0x60806040523480156200001157600080fd5b506200005d6040518060400160405280600e81526020017f54686973206973206120746573740000000000000000000000000000000000008152506200006360201b620006021760201c565b620001ed565b62000103816040516024016200007a9190620001c9565b6040516020818303038152906040527f41304fac000000000000000000000000000000000000000000000000000000007bffffffffffffffffffffffffffffffffffffffffffffffffffffffff19166020820180517bffffffffffffffffffffffffffffffffffffffffffffffffffffffff83818316178352505050506200010660201b60201c565b50565b60008151905060006a636f6e736f6c652e6c6f679050602083016000808483855afa5050505050565b600081519050919050565b600082825260208201905092915050565b60005b838110156200016b5780820151818401526020810190506200014e565b60008484015250505050565b6000601f19601f8301169050919050565b600062000195826200012f565b620001a181856200013a565b9350620001b38185602086016200014b565b620001be8162000177565b840191505092915050565b60006020820190508181036000830152620001e5818462000188565b905092915050565b61110580620001fd6000396000f3fe608060405234801561001057600080fd5b506004361061004c5760003560e01c80632af9338e14610051578063602bdec81461006f578063c0481da11461008b578063e25f3e02146100a7575b600080fd5b6100596100d7565b6040516100669190610950565b60405180910390f35b61008960048036038101906100849190610abb565b610268565b005b6100a560048036038101906100a09190610b68565b6103e4565b005b6100c160048036038101906100bc9190610ba8565b610494565b6040516100ce9190610c4b565b60405180910390f35b60606000805480602002602001604051908101604052809291908181526020016000905b8282101561025f57838290600052602060002090600402016040518060a00160405290816000820160009054906101000a900473ffffffffffffffffffffffffffffffffffffffff1673ffffffffffffffffffffffffffffffffffffffff1673ffffffffffffffffffffffffffffffffffffffff1681526020016001820154815260200160028201805461018e90610c9c565b80601f01602080910402602001604051908101604052809291908181526020018280546101ba90610c9c565b80156102075780601f106101dc57610100808354040283529160200191610207565b820191906000526020600020905b8154815290600101906020018083116101ea57829003601f168201915b505050505081526020016003820160009054906101000a900461ffff1661ffff1661ffff1681526020016003820160029054906101000a900461ffff1661ffff1661ffff1681525050815260200190600101906100fb565b50505050905090565b60006040518060a001604052803373ffffffffffffffffffffffffffffffffffffffff168152602001428152602001838152602001600061ffff168152602001600061ffff168152509050600081908060018154018082558091505060019003906000526020600020906004020160009091909190915060008201518160000160006101000a81548173ffffffffffffffffffffffffffffffffffffffff021916908373ffffffffffffffffffffffffffffffffffffffff1602179055506020820151816001015560408201518160020190816103459190610e79565b5060608201518160030160006101000a81548161ffff021916908361ffff16021790555060808201518160030160026101000a81548161ffff021916908361ffff1602179055505050600060016000805490506103a29190610f7a565b90507f89b0d534e170cf9337f48d488718913ad529820aa37e796d15f46e0a072acdcf8184336040516103d793929190611016565b60405180910390a1505050565b60008083815481106103f9576103f8611054565b5b9060005260206000209060040201905081156104515780600301600081819054906101000a900461ffff168092919061043190611083565b91906101000a81548161ffff021916908361ffff1602179055505061048f565b80600301600281819054906101000a900461ffff168092919061047390611083565b91906101000a81548161ffff021916908361ffff160217905550505b505050565b61049c6106c4565b600082815481106104b0576104af611054565b5b90600052602060002090600402016040518060a00160405290816000820160009054906101000a900473ffffffffffffffffffffffffffffffffffffffff1673ffffffffffffffffffffffffffffffffffffffff1673ffffffffffffffffffffffffffffffffffffffff1681526020016001820154815260200160028201805461053990610c9c565b80601f016020809104026020016040519081016040528092919081815260200182805461056590610c9c565b80156105b25780601f10610587576101008083540402835291602001916105b2565b820191906000526020600020905b81548152906001019060200180831161059557829003601f168201915b505050505081526020016003820160009054906101000a900461ffff1661ffff1661ffff1681526020016003820160029054906101000a900461ffff1661ffff1661ffff16815250509050919050565b6106988160405160240161061691906110ad565b6040516020818303038152906040527f41304fac000000000000000000000000000000000000000000000000000000007bffffffffffffffffffffffffffffffffffffffffffffffffffffffff19166020820180517bffffffffffffffffffffffffffffffffffffffffffffffffffffffff838183161783525050505061069b565b50565b60008151905060006a636f6e736f6c652e6c6f679050602083016000808483855afa5050505050565b6040518060a00160405280600073ffffffffffffffffffffffffffffffffffffffff1681526020016000815260200160608152602001600061ffff168152602001600061ffff1681525090565b600081519050919050565b600082825260208201905092915050565b6000819050602082019050919050565b600073ffffffffffffffffffffffffffffffffffffffff82169050919050565b60006107688261073d565b9050919050565b6107788161075d565b82525050565b6000819050919050565b6107918161077e565b82525050565b600081519050919050565b600082825260208201905092915050565b60005b838110156107d15780820151818401526020810190506107b6565b60008484015250505050565b6000601f19601f8301169050919050565b60006107f982610797565b61080381856107a2565b93506108138185602086016107b3565b61081c816107dd565b840191505092915050565b600061ffff82169050919050565b61083e81610827565b82525050565b600060a08301600083015161085c600086018261076f565b50602083015161086f6020860182610788565b506040830151848203604086015261088782826107ee565b915050606083015161089c6060860182610835565b5060808301516108af6080860182610835565b508091505092915050565b60006108c68383610844565b905092915050565b6000602082019050919050565b60006108e682610711565b6108f0818561071c565b9350836020820285016109028561072d565b8060005b8581101561093e578484038952815161091f85826108ba565b945061092a836108ce565b925060208a01995050600181019050610906565b50829750879550505050505092915050565b6000602082019050818103600083015261096a81846108db565b905092915050565b6000604051905090565b600080fd5b600080fd5b600080fd5b600080fd5b7f4e487b7100000000000000000000000000000000000000000000000000000000600052604160045260246000fd5b6109c8826107dd565b810181811067ffffffffffffffff821117156109e7576109e6610990565b5b80604052505050565b60006109fa610972565b9050610a0682826109bf565b919050565b600067ffffffffffffffff821115610a2657610a25610990565b5b610a2f826107dd565b9050602081019050919050565b82818337600083830152505050565b6000610a5e610a5984610a0b565b6109f0565b905082815260208101848484011115610a7a57610a7961098b565b5b610a85848285610a3c565b509392505050565b600082601f830112610aa257610aa1610986565b5b8135610ab2848260208601610a4b565b91505092915050565b600060208284031215610ad157610ad061097c565b5b600082013567ffffffffffffffff811115610aef57610aee610981565b5b610afb84828501610a8d565b91505092915050565b610b0d8161077e565b8114610b1857600080fd5b50565b600081359050610b2a81610b04565b92915050565b60008115159050919050565b610b4581610b30565b8114610b5057600080fd5b50565b600081359050610b6281610b3c565b92915050565b60008060408385031215610b7f57610b7e61097c565b5b6000610b8d85828601610b1b565b9250506020610b9e85828601610b53565b9150509250929050565b600060208284031215610bbe57610bbd61097c565b5b6000610bcc84828501610b1b565b91505092915050565b600060a083016000830151610bed600086018261076f565b506020830151610c006020860182610788565b5060408301518482036040860152610c1882826107ee565b9150506060830151610c2d6060860182610835565b506080830151610c406080860182610835565b508091505092915050565b60006020820190508181036000830152610c658184610bd5565b905092915050565b7f4e487b7100000000000000000000000000000000000000000000000000000000600052602260045260246000fd5b60006002820490506001821680610cb457607f821691505b602082108103610cc757610cc6610c6d565b5b50919050565b60008190508160005260206000209050919050565b60006020601f8301049050919050565b600082821b905092915050565b600060088302610d2f7fffffffffffffffffffffffffffffffffffffffffffffffffffffffffffffffff82610cf2565b610d398683610cf2565b95508019841693508086168417925050509392505050565b6000819050919050565b6000610d76610d71610d6c8461077e565b610d51565b61077e565b9050919050565b6000819050919050565b610d9083610d5b565b610da4610d9c82610d7d565b848454610cff565b825550505050565b600090565b610db9610dac565b610dc4818484610d87565b505050565b5b81811015610de857610ddd600082610db1565b600181019050610dca565b5050565b601f821115610e2d57610dfe81610ccd565b610e0784610ce2565b81016020851015610e16578190505b610e2a610e2285610ce2565b830182610dc9565b50505b505050565b600082821c905092915050565b6000610e5060001984600802610e32565b1980831691505092915050565b6000610e698383610e3f565b9150826002028217905092915050565b610e8282610797565b67ffffffffffffffff811115610e9b57610e9a610990565b5b610ea58254610c9c565b610eb0828285610dec565b600060209050601f831160018114610ee35760008415610ed1578287015190505b610edb8582610e5d565b865550610f43565b601f198416610ef186610ccd565b60005b82811015610f1957848901518255600182019150602085019450602081019050610ef4565b86831015610f365784890151610f32601f891682610e3f565b8355505b6001600288020188555050505b505050505050565b7f4e487b7100000000000000000000000000000000000000000000000000000000600052601160045260246000fd5b6000610f858261077e565b9150610f908361077e565b9250828203905081811115610fa857610fa7610f4b565b5b92915050565b610fb78161077e565b82525050565b600082825260208201905092915050565b6000610fd982610797565b610fe38185610fbd565b9350610ff38185602086016107b3565b610ffc816107dd565b840191505092915050565b6110108161075d565b82525050565b600060608201905061102b6000830186610fae565b818103602083015261103d8185610fce565b905061104c6040830184611007565b949350505050565b7f4e487b7100000000000000000000000000000000000000000000000000000000600052603260045260246000fd5b600061108e82610827565b915061ffff82036110a2576110a1610f4b565b5b600182019050919050565b600060208201905081810360008301526110c78184610fce565b90509291505056fea26469706673582212208f2e4e9bec8261a4c807775c7e37291bc406ce4afe7e02da169462b3711ec46864736f6c63430008110033",
  "linkReferences": {},
  "deployedLinkReferences": {}
}