{
  "_format": "hh-sol-artifact-1",
  "contractName": "Stance",
  "sourceName": "contracts/Stance.sol",
  "abi": [
    {
      "inputs": [],
      "stateMutability": "nonpayable",
      "type": "constructor"
    },
    {
      "anonymous": false,
      "inputs": [
        {
          "indexed": false,
          "internalType": "uint256",
          "name": "id",
          "type": "uint256"
        },
        {
          "indexed": false,
          "internalType": "string",
          "name": "question",
          "type": "string"
        },
        {
          "indexed": false,
          "internalType": "address",
          "name": "author",
          "type": "address"
        }
      ],
      "name": "QuestionAsked",
      "type": "event"
    },
    {
      "inputs": [
        {
          "internalType": "string",
          "name": "_question",
          "type": "string"
        }
      ],
      "name": "askQuestion",
      "outputs": [],
      "stateMutability": "nonpayable",
      "type": "function"
    },
    {
      "inputs": [],
      "name": "getAllQuestions",
      "outputs": [
        {
          "components": [
            {
              "internalType": "address",
              "name": "author",
              "type": "address"
            },
            {
              "internalType": "uint256",
              "name": "timestamp",
              "type": "uint256"
            },
            {
              "internalType": "string",
              "name": "question",
              "type": "string"
            },
            {
              "internalType": "uint16",
              "name": "positiveResponsesCount",
              "type": "uint16"
            },
            {
              "internalType": "uint16",
              "name": "negativeResponsesCount",
              "type": "uint16"
            }
          ],
          "internalType": "struct Question[]",
          "name": "",
          "type": "tuple[]"
        }
      ],
      "stateMutability": "view",
      "type": "function"
    },
    {
      "inputs": [
        {
          "internalType": "uint256",
          "name": "id",
          "type": "uint256"
        }
      ],
      "name": "getQuestionById",
      "outputs": [
        {
          "components": [
            {
              "internalType": "address",
              "name": "author",
              "type": "address"
            },
            {
              "internalType": "uint256",
              "name": "timestamp",
              "type": "uint256"
            },
            {
              "internalType": "string",
              "name": "question",
              "type": "string"
            },
            {
              "internalType": "uint16",
              "name": "positiveResponsesCount",
              "type": "uint16"
            },
            {
              "internalType": "uint16",
              "name": "negativeResponsesCount",
              "type": "uint16"
            }
          ],
          "internalType": "struct Question",
          "name": "",
          "type": "tuple"
        }
      ],
      "stateMutability": "view",
      "type": "function"
    },
    {
      "inputs": [
        {
          "internalType": "uint256",
          "name": "_id",
          "type": "uint256"
        }
      ],
      "name": "respondToQuestionNegatively",
      "outputs": [],
      "stateMutability": "nonpayable",
      "type": "function"
    },
    {
      "inputs": [
        {
          "internalType": "uint256",
          "name": "_id",
          "type": "uint256"
        }
      ],
      "name": "respondToQuestionPositively",
      "outputs": [],
      "stateMutability": "nonpayable",
      "type": "function"
    }
  ],
  "bytecode": "0x608060405234801561001057600080fd5b50610fec806100206000396000f3fe608060405234801561001057600080fd5b50600436106100575760003560e01c80630e196ae51461005c5780632af9338e14610078578063602bdec814610096578063dddec182146100b2578063e25f3e02146100ce575b600080fd5b610076600480360381019061007191906106dc565b6100fe565b005b610080610164565b60405161008d919061093e565b60405180910390f35b6100b060048036038101906100ab9190610a95565b6102f5565b005b6100cc60048036038101906100c791906106dc565b610471565b005b6100e860048036038101906100e391906106dc565b6104d7565b6040516100f59190610b54565b60405180910390f35b600080828154811061011357610112610b76565b5b9060005260206000209060040201905080600301600281819054906101000a900461ffff168092919061014590610bd4565b91906101000a81548161ffff021916908361ffff160217905550505050565b60606000805480602002602001604051908101604052809291908181526020016000905b828210156102ec57838290600052602060002090600402016040518060a00160405290816000820160009054906101000a900473ffffffffffffffffffffffffffffffffffffffff1673ffffffffffffffffffffffffffffffffffffffff1673ffffffffffffffffffffffffffffffffffffffff1681526020016001820154815260200160028201805461021b90610c2d565b80601f016020809104026020016040519081016040528092919081815260200182805461024790610c2d565b80156102945780601f1061026957610100808354040283529160200191610294565b820191906000526020600020905b81548152906001019060200180831161027757829003601f168201915b505050505081526020016003820160009054906101000a900461ffff1661ffff1661ffff1681526020016003820160029054906101000a900461ffff1661ffff1661ffff168152505081526020019060010190610188565b50505050905090565b60006040518060a001604052803373ffffffffffffffffffffffffffffffffffffffff168152602001428152602001838152602001600061ffff168152602001600061ffff168152509050600081908060018154018082558091505060019003906000526020600020906004020160009091909190915060008201518160000160006101000a81548173ffffffffffffffffffffffffffffffffffffffff021916908373ffffffffffffffffffffffffffffffffffffffff1602179055506020820151816001015560408201518160020190816103d29190610e0a565b5060608201518160030160006101000a81548161ffff021916908361ffff16021790555060808201518160030160026101000a81548161ffff021916908361ffff16021790555050506000600160008054905061042f9190610edc565b90507f89b0d534e170cf9337f48d488718913ad529820aa37e796d15f46e0a072acdcf81843360405161046493929190610f78565b60405180910390a1505050565b600080828154811061048657610485610b76565b5b9060005260206000209060040201905080600301600081819054906101000a900461ffff16809291906104b890610bd4565b91906101000a81548161ffff021916908361ffff160217905550505050565b6104df610645565b600082815481106104f3576104f2610b76565b5b90600052602060002090600402016040518060a00160405290816000820160009054906101000a900473ffffffffffffffffffffffffffffffffffffffff1673ffffffffffffffffffffffffffffffffffffffff1673ffffffffffffffffffffffffffffffffffffffff1681526020016001820154815260200160028201805461057c90610c2d565b80601f01602080910402602001604051908101604052809291908181526020018280546105a890610c2d565b80156105f55780601f106105ca576101008083540402835291602001916105f5565b820191906000526020600020905b8154815290600101906020018083116105d857829003601f168201915b505050505081526020016003820160009054906101000a900461ffff1661ffff1661ffff1681526020016003820160029054906101000a900461ffff1661ffff1661ffff16815250509050919050565b6040518060a00160405280600073ffffffffffffffffffffffffffffffffffffffff1681526020016000815260200160608152602001600061ffff168152602001600061ffff1681525090565b6000604051905090565b600080fd5b600080fd5b6000819050919050565b6106b9816106a6565b81146106c457600080fd5b50565b6000813590506106d6816106b0565b92915050565b6000602082840312156106f2576106f161069c565b5b6000610700848285016106c7565b91505092915050565b600081519050919050565b600082825260208201905092915050565b6000819050602082019050919050565b600073ffffffffffffffffffffffffffffffffffffffff82169050919050565b600061076082610735565b9050919050565b61077081610755565b82525050565b61077f816106a6565b82525050565b600081519050919050565b600082825260208201905092915050565b60005b838110156107bf5780820151818401526020810190506107a4565b60008484015250505050565b6000601f19601f8301169050919050565b60006107e782610785565b6107f18185610790565b93506108018185602086016107a1565b61080a816107cb565b840191505092915050565b600061ffff82169050919050565b61082c81610815565b82525050565b600060a08301600083015161084a6000860182610767565b50602083015161085d6020860182610776565b506040830151848203604086015261087582826107dc565b915050606083015161088a6060860182610823565b50608083015161089d6080860182610823565b508091505092915050565b60006108b48383610832565b905092915050565b6000602082019050919050565b60006108d482610709565b6108de8185610714565b9350836020820285016108f085610725565b8060005b8581101561092c578484038952815161090d85826108a8565b9450610918836108bc565b925060208a019950506001810190506108f4565b50829750879550505050505092915050565b6000602082019050818103600083015261095881846108c9565b905092915050565b600080fd5b600080fd5b7f4e487b7100000000000000000000000000000000000000000000000000000000600052604160045260246000fd5b6109a2826107cb565b810181811067ffffffffffffffff821117156109c1576109c061096a565b5b80604052505050565b60006109d4610692565b90506109e08282610999565b919050565b600067ffffffffffffffff821115610a00576109ff61096a565b5b610a09826107cb565b9050602081019050919050565b82818337600083830152505050565b6000610a38610a33846109e5565b6109ca565b905082815260208101848484011115610a5457610a53610965565b5b610a5f848285610a16565b509392505050565b600082601f830112610a7c57610a7b610960565b5b8135610a8c848260208601610a25565b91505092915050565b600060208284031215610aab57610aaa61069c565b5b600082013567ffffffffffffffff811115610ac957610ac86106a1565b5b610ad584828501610a67565b91505092915050565b600060a083016000830151610af66000860182610767565b506020830151610b096020860182610776565b5060408301518482036040860152610b2182826107dc565b9150506060830151610b366060860182610823565b506080830151610b496080860182610823565b508091505092915050565b60006020820190508181036000830152610b6e8184610ade565b905092915050565b7f4e487b7100000000000000000000000000000000000000000000000000000000600052603260045260246000fd5b7f4e487b7100000000000000000000000000000000000000000000000000000000600052601160045260246000fd5b6000610bdf82610815565b915061ffff8203610bf357610bf2610ba5565b5b600182019050919050565b7f4e487b7100000000000000000000000000000000000000000000000000000000600052602260045260246000fd5b60006002820490506001821680610c4557607f821691505b602082108103610c5857610c57610bfe565b5b50919050565b60008190508160005260206000209050919050565b60006020601f8301049050919050565b600082821b905092915050565b600060088302610cc07fffffffffffffffffffffffffffffffffffffffffffffffffffffffffffffffff82610c83565b610cca8683610c83565b95508019841693508086168417925050509392505050565b6000819050919050565b6000610d07610d02610cfd846106a6565b610ce2565b6106a6565b9050919050565b6000819050919050565b610d2183610cec565b610d35610d2d82610d0e565b848454610c90565b825550505050565b600090565b610d4a610d3d565b610d55818484610d18565b505050565b5b81811015610d7957610d6e600082610d42565b600181019050610d5b565b5050565b601f821115610dbe57610d8f81610c5e565b610d9884610c73565b81016020851015610da7578190505b610dbb610db385610c73565b830182610d5a565b50505b505050565b600082821c905092915050565b6000610de160001984600802610dc3565b1980831691505092915050565b6000610dfa8383610dd0565b9150826002028217905092915050565b610e1382610785565b67ffffffffffffffff811115610e2c57610e2b61096a565b5b610e368254610c2d565b610e41828285610d7d565b600060209050601f831160018114610e745760008415610e62578287015190505b610e6c8582610dee565b865550610ed4565b601f198416610e8286610c5e565b60005b82811015610eaa57848901518255600182019150602085019450602081019050610e85565b86831015610ec75784890151610ec3601f891682610dd0565b8355505b6001600288020188555050505b505050505050565b6000610ee7826106a6565b9150610ef2836106a6565b9250828203905081811115610f0a57610f09610ba5565b5b92915050565b610f19816106a6565b82525050565b600082825260208201905092915050565b6000610f3b82610785565b610f458185610f1f565b9350610f558185602086016107a1565b610f5e816107cb565b840191505092915050565b610f7281610755565b82525050565b6000606082019050610f8d6000830186610f10565b8181036020830152610f9f8185610f30565b9050610fae6040830184610f69565b94935050505056fea264697066735822122090bfd5eb6ed7872216a84928904988c15d5a97ebbd41c843d96a03e9ef41d36964736f6c63430008110033",
  "linkReferences": {},
  "deployedLinkReferences": {}
}